{
  "contractName": "CryptoArt",
  "abi": [
    {
      "inputs": [],
      "stateMutability": "nonpayable",
      "type": "constructor"
    },
    {
      "anonymous": false,
      "inputs": [
        {
          "indexed": true,
          "internalType": "address",
          "name": "owner",
          "type": "address"
        },
        {
          "indexed": true,
          "internalType": "address",
          "name": "approved",
          "type": "address"
        },
        {
          "indexed": true,
          "internalType": "uint256",
          "name": "tokenId",
          "type": "uint256"
        }
      ],
      "name": "Approval",
      "type": "event"
    },
    {
      "anonymous": false,
      "inputs": [
        {
          "indexed": true,
          "internalType": "address",
          "name": "owner",
          "type": "address"
        },
        {
          "indexed": true,
          "internalType": "address",
          "name": "operator",
          "type": "address"
        },
        {
          "indexed": false,
          "internalType": "bool",
          "name": "approved",
          "type": "bool"
        }
      ],
      "name": "ApprovalForAll",
      "type": "event"
    },
    {
      "anonymous": false,
      "inputs": [
        {
          "indexed": true,
          "internalType": "address",
          "name": "from",
          "type": "address"
        },
        {
          "indexed": true,
          "internalType": "address",
          "name": "to",
          "type": "address"
        },
        {
          "indexed": true,
          "internalType": "uint256",
          "name": "tokenId",
          "type": "uint256"
        }
      ],
      "name": "Transfer",
      "type": "event"
    },
    {
      "inputs": [
        {
          "internalType": "address",
          "name": "to",
          "type": "address"
        },
        {
          "internalType": "uint256",
          "name": "tokenId",
          "type": "uint256"
        }
      ],
      "name": "approve",
      "outputs": [],
      "stateMutability": "nonpayable",
      "type": "function"
    },
    {
      "inputs": [
        {
          "internalType": "address",
          "name": "owner",
          "type": "address"
        }
      ],
      "name": "balanceOf",
      "outputs": [
        {
          "internalType": "uint256",
          "name": "",
          "type": "uint256"
        }
      ],
      "stateMutability": "view",
      "type": "function",
      "constant": true
    },
    {
      "inputs": [
        {
          "internalType": "uint256",
          "name": "tokenId",
          "type": "uint256"
        }
      ],
      "name": "getApproved",
      "outputs": [
        {
          "internalType": "address",
          "name": "",
          "type": "address"
        }
      ],
      "stateMutability": "view",
      "type": "function",
      "constant": true
    },
    {
      "inputs": [
        {
          "internalType": "address",
          "name": "owner",
          "type": "address"
        },
        {
          "internalType": "address",
          "name": "operator",
          "type": "address"
        }
      ],
      "name": "isApprovedForAll",
      "outputs": [
        {
          "internalType": "bool",
          "name": "",
          "type": "bool"
        }
      ],
      "stateMutability": "view",
      "type": "function",
      "constant": true
    },
    {
      "inputs": [],
      "name": "name",
      "outputs": [
        {
          "internalType": "string",
          "name": "",
          "type": "string"
        }
      ],
      "stateMutability": "view",
      "type": "function",
      "constant": true
    },
    {
      "inputs": [
        {
          "internalType": "uint256",
          "name": "tokenId",
          "type": "uint256"
        }
      ],
      "name": "ownerOf",
      "outputs": [
        {
          "internalType": "address",
          "name": "",
          "type": "address"
        }
      ],
      "stateMutability": "view",
      "type": "function",
      "constant": true
    },
    {
      "inputs": [
        {
          "internalType": "address",
          "name": "from",
          "type": "address"
        },
        {
          "internalType": "address",
          "name": "to",
          "type": "address"
        },
        {
          "internalType": "uint256",
          "name": "tokenId",
          "type": "uint256"
        }
      ],
      "name": "safeTransferFrom",
      "outputs": [],
      "stateMutability": "nonpayable",
      "type": "function"
    },
    {
      "inputs": [
        {
          "internalType": "address",
          "name": "from",
          "type": "address"
        },
        {
          "internalType": "address",
          "name": "to",
          "type": "address"
        },
        {
          "internalType": "uint256",
          "name": "tokenId",
          "type": "uint256"
        },
        {
          "internalType": "bytes",
          "name": "_data",
          "type": "bytes"
        }
      ],
      "name": "safeTransferFrom",
      "outputs": [],
      "stateMutability": "nonpayable",
      "type": "function"
    },
    {
      "inputs": [
        {
          "internalType": "address",
          "name": "operator",
          "type": "address"
        },
        {
          "internalType": "bool",
          "name": "approved",
          "type": "bool"
        }
      ],
      "name": "setApprovalForAll",
      "outputs": [],
      "stateMutability": "nonpayable",
      "type": "function"
    },
    {
      "inputs": [
        {
          "internalType": "bytes4",
          "name": "interfaceId",
          "type": "bytes4"
        }
      ],
      "name": "supportsInterface",
      "outputs": [
        {
          "internalType": "bool",
          "name": "",
          "type": "bool"
        }
      ],
      "stateMutability": "view",
      "type": "function",
      "constant": true
    },
    {
      "inputs": [],
      "name": "symbol",
      "outputs": [
        {
          "internalType": "string",
          "name": "",
          "type": "string"
        }
      ],
      "stateMutability": "view",
      "type": "function",
      "constant": true
    },
    {
      "inputs": [],
      "name": "tokenCounter",
      "outputs": [
        {
          "internalType": "uint256",
          "name": "",
          "type": "uint256"
        }
      ],
      "stateMutability": "view",
      "type": "function",
      "constant": true
    },
    {
      "inputs": [
        {
          "internalType": "uint256",
          "name": "tokenId",
          "type": "uint256"
        }
      ],
      "name": "tokenURI",
      "outputs": [
        {
          "internalType": "string",
          "name": "",
          "type": "string"
        }
      ],
      "stateMutability": "view",
      "type": "function",
      "constant": true
    },
    {
      "inputs": [
        {
          "internalType": "address",
          "name": "from",
          "type": "address"
        },
        {
          "internalType": "address",
          "name": "to",
          "type": "address"
        },
        {
          "internalType": "uint256",
          "name": "tokenId",
          "type": "uint256"
        }
      ],
      "name": "transferFrom",
      "outputs": [],
      "stateMutability": "nonpayable",
      "type": "function"
    },
    {
      "inputs": [
        {
          "internalType": "string",
          "name": "tokenURI",
          "type": "string"
        }
      ],
      "name": "createCollectible",
      "outputs": [
        {
          "internalType": "uint256",
          "name": "",
          "type": "uint256"
        }
      ],
      "stateMutability": "nonpayable",
      "type": "function"
    }
  ],
  "bytecode": "0x60806040523480156200001157600080fd5b506040518060400160405280600981526020017f43727970746f41727400000000000000000000000000000000000000000000008152506040518060400160405280600381526020017f4352410000000000000000000000000000000000000000000000000000000000815250816000908051906020019062000096929190620000c0565b508060019080519060200190620000af929190620000c0565b5050506001600781905550620001d5565b828054620000ce9062000170565b90600052602060002090601f016020900481019282620000f257600085556200013e565b82601f106200010d57805160ff19168380011785556200013e565b828001600101855582156200013e579182015b828111156200013d57825182559160200191906001019062000120565b5b5090506200014d919062000151565b5090565b5b808211156200016c57600081600090555060010162000152565b5090565b600060028204905060018216806200018957607f821691505b60208210811415620001a0576200019f620001a6565b5b50919050565b7f4e487b7100000000000000000000000000000000000000000000000000000000600052602260045260246000fd5b612bdf80620001e56000396000f3fe608060405234801561001057600080fd5b50600436106100f55760003560e01c80636352211e11610097578063b88d4fde11610066578063b88d4fde14610296578063c87b56dd146102b2578063d082e381146102e2578063e985e9c514610300576100f5565b80636352211e146101fc57806370a082311461022c57806395d89b411461025c578063a22cb4651461027a576100f5565b8063095ea7b3116100d3578063095ea7b31461017857806323b872dd1461019457806331f1f3c3146101b057806342842e0e146101e0576100f5565b806301ffc9a7146100fa57806306fdde031461012a578063081812fc14610148575b600080fd5b610114600480360381019061010f9190611c4b565b610330565b6040516101219190612092565b60405180910390f35b610132610412565b60405161013f91906120ad565b60405180910390f35b610162600480360381019061015d9190611cde565b6104a4565b60405161016f919061202b565b60405180910390f35b610192600480360381019061018d9190611c0f565b610529565b005b6101ae60048036038101906101a99190611b09565b610641565b005b6101ca60048036038101906101c59190611c9d565b6106a1565b6040516101d791906122cf565b60405180910390f35b6101fa60048036038101906101f59190611b09565b6106db565b005b61021660048036038101906102119190611cde565b6106fb565b604051610223919061202b565b60405180910390f35b61024660048036038101906102419190611aa4565b6107ad565b60405161025391906122cf565b60405180910390f35b610264610865565b60405161027191906120ad565b60405180910390f35b610294600480360381019061028f9190611bd3565b6108f7565b005b6102b060048036038101906102ab9190611b58565b610a78565b005b6102cc60048036038101906102c79190611cde565b610ada565b6040516102d991906120ad565b60405180910390f35b6102ea610c2c565b6040516102f791906122cf565b60405180910390f35b61031a60048036038101906103159190611acd565b610c32565b6040516103279190612092565b60405180910390f35b60007f80ac58cd000000000000000000000000000000000000000000000000000000007bffffffffffffffffffffffffffffffffffffffffffffffffffffffff1916827bffffffffffffffffffffffffffffffffffffffffffffffffffffffff191614806103fb57507f5b5e139f000000000000000000000000000000000000000000000000000000007bffffffffffffffffffffffffffffffffffffffffffffffffffffffff1916827bffffffffffffffffffffffffffffffffffffffffffffffffffffffff1916145b8061040b575061040a82610cc6565b5b9050919050565b60606000805461042190612525565b80601f016020809104026020016040519081016040528092919081815260200182805461044d90612525565b801561049a5780601f1061046f5761010080835404028352916020019161049a565b820191906000526020600020905b81548152906001019060200180831161047d57829003601f168201915b5050505050905090565b60006104af82610d30565b6104ee576040517f08c379a00000000000000000000000000000000000000000000000000000000081526004016104e59061222f565b60405180910390fd5b6004600083815260200190815260200160002060009054906101000a900473ffffffffffffffffffffffffffffffffffffffff169050919050565b6000610534826106fb565b90508073ffffffffffffffffffffffffffffffffffffffff168373ffffffffffffffffffffffffffffffffffffffff1614156105a5576040517f08c379a000000000000000000000000000000000000000000000000000000000815260040161059c9061228f565b60405180910390fd5b8073ffffffffffffffffffffffffffffffffffffffff166105c4610d9c565b73ffffffffffffffffffffffffffffffffffffffff1614806105f357506105f2816105ed610d9c565b610c32565b5b610632576040517f08c379a00000000000000000000000000000000000000000000000000000000081526004016106299061216f565b60405180910390fd5b61063c8383610da4565b505050565b61065261064c610d9c565b82610e5d565b610691576040517f08c379a0000000000000000000000000000000000000000000000000000000008152600401610688906122af565b60405180910390fd5b61069c838383610f3b565b505050565b60008060075490506106b33382611197565b6106bd81846111b5565b60016007546106cc91906123b4565b60078190555080915050919050565b6106f683838360405180602001604052806000815250610a78565b505050565b6000806002600084815260200190815260200160002060009054906101000a900473ffffffffffffffffffffffffffffffffffffffff169050600073ffffffffffffffffffffffffffffffffffffffff168173ffffffffffffffffffffffffffffffffffffffff1614156107a4576040517f08c379a000000000000000000000000000000000000000000000000000000000815260040161079b906121af565b60405180910390fd5b80915050919050565b60008073ffffffffffffffffffffffffffffffffffffffff168273ffffffffffffffffffffffffffffffffffffffff16141561081e576040517f08c379a00000000000000000000000000000000000000000000000000000000081526004016108159061218f565b60405180910390fd5b600360008373ffffffffffffffffffffffffffffffffffffffff1673ffffffffffffffffffffffffffffffffffffffff168152602001908152602001600020549050919050565b60606001805461087490612525565b80601f01602080910402602001604051908101604052809291908181526020018280546108a090612525565b80156108ed5780601f106108c2576101008083540402835291602001916108ed565b820191906000526020600020905b8154815290600101906020018083116108d057829003601f168201915b5050505050905090565b6108ff610d9c565b73ffffffffffffffffffffffffffffffffffffffff168273ffffffffffffffffffffffffffffffffffffffff16141561096d576040517f08c379a00000000000000000000000000000000000000000000000000000000081526004016109649061212f565b60405180910390fd5b806005600061097a610d9c565b73ffffffffffffffffffffffffffffffffffffffff1673ffffffffffffffffffffffffffffffffffffffff16815260200190815260200160002060008473ffffffffffffffffffffffffffffffffffffffff1673ffffffffffffffffffffffffffffffffffffffff16815260200190815260200160002060006101000a81548160ff0219169083151502179055508173ffffffffffffffffffffffffffffffffffffffff16610a27610d9c565b73ffffffffffffffffffffffffffffffffffffffff167f17307eab39ab6107e8899845ad3d59bd9653f200f220920489ca2b5937696c3183604051610a6c9190612092565b60405180910390a35050565b610a89610a83610d9c565b83610e5d565b610ac8576040517f08c379a0000000000000000000000000000000000000000000000000000000008152600401610abf906122af565b60405180910390fd5b610ad484848484611229565b50505050565b6060610ae582610d30565b610b24576040517f08c379a0000000000000000000000000000000000000000000000000000000008152600401610b1b9061220f565b60405180910390fd5b6000600660008481526020019081526020016000208054610b4490612525565b80601f0160208091040260200160405190810160405280929190818152602001828054610b7090612525565b8015610bbd5780601f10610b9257610100808354040283529160200191610bbd565b820191906000526020600020905b815481529060010190602001808311610ba057829003601f168201915b505050505090506000610bce611285565b9050600081511415610be4578192505050610c27565b600082511115610c19578082604051602001610c01929190612007565b60405160208183030381529060405292505050610c27565b610c228461129c565b925050505b919050565b60075481565b6000600560008473ffffffffffffffffffffffffffffffffffffffff1673ffffffffffffffffffffffffffffffffffffffff16815260200190815260200160002060008373ffffffffffffffffffffffffffffffffffffffff1673ffffffffffffffffffffffffffffffffffffffff16815260200190815260200160002060009054906101000a900460ff16905092915050565b60007f01ffc9a7000000000000000000000000000000000000000000000000000000007bffffffffffffffffffffffffffffffffffffffffffffffffffffffff1916827bffffffffffffffffffffffffffffffffffffffffffffffffffffffff1916149050919050565b60008073ffffffffffffffffffffffffffffffffffffffff166002600084815260200190815260200160002060009054906101000a900473ffffffffffffffffffffffffffffffffffffffff1673ffffffffffffffffffffffffffffffffffffffff1614159050919050565b600033905090565b816004600083815260200190815260200160002060006101000a81548173ffffffffffffffffffffffffffffffffffffffff021916908373ffffffffffffffffffffffffffffffffffffffff160217905550808273ffffffffffffffffffffffffffffffffffffffff16610e17836106fb565b73ffffffffffffffffffffffffffffffffffffffff167f8c5be1e5ebec7d5bd14f71427d1e84f3dd0314c0f7b2291e5b200ac8c7c3b92560405160405180910390a45050565b6000610e6882610d30565b610ea7576040517f08c379a0000000000000000000000000000000000000000000000000000000008152600401610e9e9061214f565b60405180910390fd5b6000610eb2836106fb565b90508073ffffffffffffffffffffffffffffffffffffffff168473ffffffffffffffffffffffffffffffffffffffff161480610f2157508373ffffffffffffffffffffffffffffffffffffffff16610f09846104a4565b73ffffffffffffffffffffffffffffffffffffffff16145b80610f325750610f318185610c32565b5b91505092915050565b8273ffffffffffffffffffffffffffffffffffffffff16610f5b826106fb565b73ffffffffffffffffffffffffffffffffffffffff1614610fb1576040517f08c379a0000000000000000000000000000000000000000000000000000000008152600401610fa89061224f565b60405180910390fd5b600073ffffffffffffffffffffffffffffffffffffffff168273ffffffffffffffffffffffffffffffffffffffff161415611021576040517f08c379a00000000000000000000000000000000000000000000000000000000081526004016110189061210f565b60405180910390fd5b61102c838383611343565b611037600082610da4565b6001600360008573ffffffffffffffffffffffffffffffffffffffff1673ffffffffffffffffffffffffffffffffffffffff1681526020019081526020016000206000828254611087919061243b565b925050819055506001600360008473ffffffffffffffffffffffffffffffffffffffff1673ffffffffffffffffffffffffffffffffffffffff16815260200190815260200160002060008282546110de91906123b4565b92505081905550816002600083815260200190815260200160002060006101000a81548173ffffffffffffffffffffffffffffffffffffffff021916908373ffffffffffffffffffffffffffffffffffffffff160217905550808273ffffffffffffffffffffffffffffffffffffffff168473ffffffffffffffffffffffffffffffffffffffff167fddf252ad1be2c89b69c2b068fc378daa952ba7f163c4a11628f55a4df523b3ef60405160405180910390a4505050565b6111b1828260405180602001604052806000815250611348565b5050565b6111be82610d30565b6111fd576040517f08c379a00000000000000000000000000000000000000000000000000000000081526004016111f4906121cf565b60405180910390fd5b806006600084815260200190815260200160002090805190602001906112249291906118c8565b505050565b611234848484610f3b565b611240848484846113a3565b61127f576040517f08c379a0000000000000000000000000000000000000000000000000000000008152600401611276906120cf565b60405180910390fd5b50505050565b606060405180602001604052806000815250905090565b60606112a782610d30565b6112e6576040517f08c379a00000000000000000000000000000000000000000000000000000000081526004016112dd9061226f565b60405180910390fd5b60006112f0611285565b90506000815111611310576040518060200160405280600081525061133b565b8061131a8461153a565b60405160200161132b929190612007565b6040516020818303038152906040525b915050919050565b505050565b61135283836116e7565b61135f60008484846113a3565b61139e576040517f08c379a0000000000000000000000000000000000000000000000000000000008152600401611395906120cf565b60405180910390fd5b505050565b60006113c48473ffffffffffffffffffffffffffffffffffffffff166118b5565b1561152d578373ffffffffffffffffffffffffffffffffffffffff1663150b7a026113ed610d9c565b8786866040518563ffffffff1660e01b815260040161140f9493929190612046565b602060405180830381600087803b15801561142957600080fd5b505af192505050801561145a57506040513d601f19601f820116820180604052508101906114579190611c74565b60015b6114dd573d806000811461148a576040519150601f19603f3d011682016040523d82523d6000602084013e61148f565b606091505b506000815114156114d5576040517f08c379a00000000000000000000000000000000000000000000000000000000081526004016114cc906120cf565b60405180910390fd5b805181602001fd5b63150b7a0260e01b7bffffffffffffffffffffffffffffffffffffffffffffffffffffffff1916817bffffffffffffffffffffffffffffffffffffffffffffffffffffffff191614915050611532565b600190505b949350505050565b60606000821415611582576040518060400160405280600181526020017f300000000000000000000000000000000000000000000000000000000000000081525090506116e2565b600082905060005b600082146115b457808061159d90612588565b915050600a826115ad919061240a565b915061158a565b60008167ffffffffffffffff8111156115f6577f4e487b7100000000000000000000000000000000000000000000000000000000600052604160045260246000fd5b6040519080825280601f01601f1916602001820160405280156116285781602001600182028036833780820191505090505b5090505b600085146116db57600182611641919061243b565b9150600a8561165091906125d1565b603061165c91906123b4565b60f81b818381518110611698577f4e487b7100000000000000000000000000000000000000000000000000000000600052603260045260246000fd5b60200101907effffffffffffffffffffffffffffffffffffffffffffffffffffffffffffff1916908160001a905350600a856116d4919061240a565b945061162c565b8093505050505b919050565b600073ffffffffffffffffffffffffffffffffffffffff168273ffffffffffffffffffffffffffffffffffffffff161415611757576040517f08c379a000000000000000000000000000000000000000000000000000000000815260040161174e906121ef565b60405180910390fd5b61176081610d30565b156117a0576040517f08c379a0000000000000000000000000000000000000000000000000000000008152600401611797906120ef565b60405180910390fd5b6117ac60008383611343565b6001600360008473ffffffffffffffffffffffffffffffffffffffff1673ffffffffffffffffffffffffffffffffffffffff16815260200190815260200160002060008282546117fc91906123b4565b92505081905550816002600083815260200190815260200160002060006101000a81548173ffffffffffffffffffffffffffffffffffffffff021916908373ffffffffffffffffffffffffffffffffffffffff160217905550808273ffffffffffffffffffffffffffffffffffffffff16600073ffffffffffffffffffffffffffffffffffffffff167fddf252ad1be2c89b69c2b068fc378daa952ba7f163c4a11628f55a4df523b3ef60405160405180910390a45050565b600080823b905060008111915050919050565b8280546118d490612525565b90600052602060002090601f0160209004810192826118f6576000855561193d565b82601f1061190f57805160ff191683800117855561193d565b8280016001018555821561193d579182015b8281111561193c578251825591602001919060010190611921565b5b50905061194a919061194e565b5090565b5b8082111561196757600081600090555060010161194f565b5090565b600061197e6119798461230f565b6122ea565b90508281526020810184848401111561199657600080fd5b6119a18482856124e3565b509392505050565b60006119bc6119b784612340565b6122ea565b9050828152602081018484840111156119d457600080fd5b6119df8482856124e3565b509392505050565b6000813590506119f681612b4d565b92915050565b600081359050611a0b81612b64565b92915050565b600081359050611a2081612b7b565b92915050565b600081519050611a3581612b7b565b92915050565b600082601f830112611a4c57600080fd5b8135611a5c84826020860161196b565b91505092915050565b600082601f830112611a7657600080fd5b8135611a868482602086016119a9565b91505092915050565b600081359050611a9e81612b92565b92915050565b600060208284031215611ab657600080fd5b6000611ac4848285016119e7565b91505092915050565b60008060408385031215611ae057600080fd5b6000611aee858286016119e7565b9250506020611aff858286016119e7565b9150509250929050565b600080600060608486031215611b1e57600080fd5b6000611b2c868287016119e7565b9350506020611b3d868287016119e7565b9250506040611b4e86828701611a8f565b9150509250925092565b60008060008060808587031215611b6e57600080fd5b6000611b7c878288016119e7565b9450506020611b8d878288016119e7565b9350506040611b9e87828801611a8f565b925050606085013567ffffffffffffffff811115611bbb57600080fd5b611bc787828801611a3b565b91505092959194509250565b60008060408385031215611be657600080fd5b6000611bf4858286016119e7565b9250506020611c05858286016119fc565b9150509250929050565b60008060408385031215611c2257600080fd5b6000611c30858286016119e7565b9250506020611c4185828601611a8f565b9150509250929050565b600060208284031215611c5d57600080fd5b6000611c6b84828501611a11565b91505092915050565b600060208284031215611c8657600080fd5b6000611c9484828501611a26565b91505092915050565b600060208284031215611caf57600080fd5b600082013567ffffffffffffffff811115611cc957600080fd5b611cd584828501611a65565b91505092915050565b600060208284031215611cf057600080fd5b6000611cfe84828501611a8f565b91505092915050565b611d108161246f565b82525050565b611d1f81612481565b82525050565b6000611d3082612371565b611d3a8185612387565b9350611d4a8185602086016124f2565b611d53816126be565b840191505092915050565b6000611d698261237c565b611d738185612398565b9350611d838185602086016124f2565b611d8c816126be565b840191505092915050565b6000611da28261237c565b611dac81856123a9565b9350611dbc8185602086016124f2565b80840191505092915050565b6000611dd5603283612398565b9150611de0826126cf565b604082019050919050565b6000611df8601c83612398565b9150611e038261271e565b602082019050919050565b6000611e1b602483612398565b9150611e2682612747565b604082019050919050565b6000611e3e601983612398565b9150611e4982612796565b602082019050919050565b6000611e61602c83612398565b9150611e6c826127bf565b604082019050919050565b6000611e84603883612398565b9150611e8f8261280e565b604082019050919050565b6000611ea7602a83612398565b9150611eb28261285d565b604082019050919050565b6000611eca602983612398565b9150611ed5826128ac565b604082019050919050565b6000611eed602e83612398565b9150611ef8826128fb565b604082019050919050565b6000611f10602083612398565b9150611f1b8261294a565b602082019050919050565b6000611f33603183612398565b9150611f3e82612973565b604082019050919050565b6000611f56602c83612398565b9150611f61826129c2565b604082019050919050565b6000611f79602983612398565b9150611f8482612a11565b604082019050919050565b6000611f9c602f83612398565b9150611fa782612a60565b604082019050919050565b6000611fbf602183612398565b9150611fca82612aaf565b604082019050919050565b6000611fe2603183612398565b9150611fed82612afe565b604082019050919050565b612001816124d9565b82525050565b60006120138285611d97565b915061201f8284611d97565b91508190509392505050565b60006020820190506120406000830184611d07565b92915050565b600060808201905061205b6000830187611d07565b6120686020830186611d07565b6120756040830185611ff8565b81810360608301526120878184611d25565b905095945050505050565b60006020820190506120a76000830184611d16565b92915050565b600060208201905081810360008301526120c78184611d5e565b905092915050565b600060208201905081810360008301526120e881611dc8565b9050919050565b6000602082019050818103600083015261210881611deb565b9050919050565b6000602082019050818103600083015261212881611e0e565b9050919050565b6000602082019050818103600083015261214881611e31565b9050919050565b6000602082019050818103600083015261216881611e54565b9050919050565b6000602082019050818103600083015261218881611e77565b9050919050565b600060208201905081810360008301526121a881611e9a565b9050919050565b600060208201905081810360008301526121c881611ebd565b9050919050565b600060208201905081810360008301526121e881611ee0565b9050919050565b6000602082019050818103600083015261220881611f03565b9050919050565b6000602082019050818103600083015261222881611f26565b9050919050565b6000602082019050818103600083015261224881611f49565b9050919050565b6000602082019050818103600083015261226881611f6c565b9050919050565b6000602082019050818103600083015261228881611f8f565b9050919050565b600060208201905081810360008301526122a881611fb2565b9050919050565b600060208201905081810360008301526122c881611fd5565b9050919050565b60006020820190506122e46000830184611ff8565b92915050565b60006122f4612305565b90506123008282612557565b919050565b6000604051905090565b600067ffffffffffffffff82111561232a5761232961268f565b5b612333826126be565b9050602081019050919050565b600067ffffffffffffffff82111561235b5761235a61268f565b5b612364826126be565b9050602081019050919050565b600081519050919050565b600081519050919050565b600082825260208201905092915050565b600082825260208201905092915050565b600081905092915050565b60006123bf826124d9565b91506123ca836124d9565b9250827fffffffffffffffffffffffffffffffffffffffffffffffffffffffffffffffff038211156123ff576123fe612602565b5b828201905092915050565b6000612415826124d9565b9150612420836124d9565b9250826124305761242f612631565b5b828204905092915050565b6000612446826124d9565b9150612451836124d9565b92508282101561246457612463612602565b5b828203905092915050565b600061247a826124b9565b9050919050565b60008115159050919050565b60007fffffffff0000000000000000000000000000000000000000000000000000000082169050919050565b600073ffffffffffffffffffffffffffffffffffffffff82169050919050565b6000819050919050565b82818337600083830152505050565b60005b838110156125105780820151818401526020810190506124f5565b8381111561251f576000848401525b50505050565b6000600282049050600182168061253d57607f821691505b6020821081141561255157612550612660565b5b50919050565b612560826126be565b810181811067ffffffffffffffff8211171561257f5761257e61268f565b5b80604052505050565b6000612593826124d9565b91507fffffffffffffffffffffffffffffffffffffffffffffffffffffffffffffffff8214156125c6576125c5612602565b5b600182019050919050565b60006125dc826124d9565b91506125e7836124d9565b9250826125f7576125f6612631565b5b828206905092915050565b7f4e487b7100000000000000000000000000000000000000000000000000000000600052601160045260246000fd5b7f4e487b7100000000000000000000000000000000000000000000000000000000600052601260045260246000fd5b7f4e487b7100000000000000000000000000000000000000000000000000000000600052602260045260246000fd5b7f4e487b7100000000000000000000000000000000000000000000000000000000600052604160045260246000fd5b6000601f19601f8301169050919050565b7f4552433732313a207472616e7366657220746f206e6f6e20455243373231526560008201527f63656976657220696d706c656d656e7465720000000000000000000000000000602082015250565b7f4552433732313a20746f6b656e20616c7265616479206d696e74656400000000600082015250565b7f4552433732313a207472616e7366657220746f20746865207a65726f2061646460008201527f7265737300000000000000000000000000000000000000000000000000000000602082015250565b7f4552433732313a20617070726f766520746f2063616c6c657200000000000000600082015250565b7f4552433732313a206f70657261746f7220717565727920666f72206e6f6e657860008201527f697374656e7420746f6b656e0000000000000000000000000000000000000000602082015250565b7f4552433732313a20617070726f76652063616c6c6572206973206e6f74206f7760008201527f6e6572206e6f7220617070726f76656420666f7220616c6c0000000000000000602082015250565b7f4552433732313a2062616c616e636520717565727920666f7220746865207a6560008201527f726f206164647265737300000000000000000000000000000000000000000000602082015250565b7f4552433732313a206f776e657220717565727920666f72206e6f6e657869737460008201527f656e7420746f6b656e0000000000000000000000000000000000000000000000602082015250565b7f45524337323155524953746f726167653a2055524920736574206f66206e6f6e60008201527f6578697374656e7420746f6b656e000000000000000000000000000000000000602082015250565b7f4552433732313a206d696e7420746f20746865207a65726f2061646472657373600082015250565b7f45524337323155524953746f726167653a2055524920717565727920666f722060008201527f6e6f6e6578697374656e7420746f6b656e000000000000000000000000000000602082015250565b7f4552433732313a20617070726f76656420717565727920666f72206e6f6e657860008201527f697374656e7420746f6b656e0000000000000000000000000000000000000000602082015250565b7f4552433732313a207472616e73666572206f6620746f6b656e2074686174206960008201527f73206e6f74206f776e0000000000000000000000000000000000000000000000602082015250565b7f4552433732314d657461646174613a2055524920717565727920666f72206e6f60008201527f6e6578697374656e7420746f6b656e0000000000000000000000000000000000602082015250565b7f4552433732313a20617070726f76616c20746f2063757272656e74206f776e6560008201527f7200000000000000000000000000000000000000000000000000000000000000602082015250565b7f4552433732313a207472616e736665722063616c6c6572206973206e6f74206f60008201527f776e6572206e6f7220617070726f766564000000000000000000000000000000602082015250565b612b568161246f565b8114612b6157600080fd5b50565b612b6d81612481565b8114612b7857600080fd5b50565b612b848161248d565b8114612b8f57600080fd5b50565b612b9b816124d9565b8114612ba657600080fd5b5056fea2646970667358221220d83e720bd15f08fe2f2caa543b22033331cac4b6dda9056106f2224adc0e4cc164736f6c63430008030033",
  "immutableReferences": {},
  "source": "// SPDX-License-Identifier: MIT\r\npragma solidity ^0.8.0;\r\n\r\nimport \"@openzeppelin/contracts/token/ERC721/ERC721.sol\";\r\nimport \"@openzeppelin/contracts/token/ERC721/extensions/ERC721URIStorage.sol\";\r\n\r\n// import \"./Ownable.sol\";\r\n\r\ncontract CryptoArt is ERC721URIStorage {\r\n    uint256 public tokenCounter;\r\n    constructor () ERC721 (\"CryptoArt\", \"CRA\"){\r\n        tokenCounter = 1;\r\n    }\r\n    function createCollectible(string memory tokenURI) public returns (uint256) {\r\n        uint256 newItemId = tokenCounter;\r\n        _safeMint(msg.sender, newItemId); // crea un nuevo nft de manera segura, si ya hay un token con ese id no te deja mintearlo.\r\n        //cualquiera que llame a esta funcion va a ser el dueo, por eso el 1err parametro\r\n        _setTokenURI(newItemId, tokenURI);\r\n        // le seteas el uri de la imagen al token(al NFT)\r\n        tokenCounter = tokenCounter + 1;\r\n        //le suma uno al token counter para que la proxima que se ejecuta es otro distinto\r\n        return newItemId;\r\n    }\r\n\r\n}\r\n\r\n// contract CryptoArt is ERC721(\"CryptoArt\", \"CRA\") {\r\n\r\n//     address public owner;\r\n\r\n//     event OwnershipTransferred(address indexed previousOwner, address indexed newOwner);\r\n//     function ownable() public {\r\n//         owner = msg.sender;\r\n//     }\r\n//     modifier onlyOwner() {\r\n//         require(msg.sender == owner);\r\n//         _;\r\n//     }\r\n\r\n//     mapping(string => uint) ipfsHashToToken;\r\n//     mapping(uint => string) tokenToIpfsHash;\r\n//     mapping(uint => uint) tokenToPrice;\r\n\r\n//     function mint(string ipfs, uint price) public payable onlyOwner {\r\n//         require(ipfsHashToToken[ipfs] == 0);\r\n\r\n//         uint newTokenId = totalSupply().add(1);\r\n//         _mint(address(this), newTokenId);\r\n\r\n//         ipfsHashToToken[ipfs] = newTokenId;\r\n//         tokenToIpfsHash[newTokenId] = ipfs;\r\n//         tokenToPrice[newTokenId] = price;\r\n//     }\r\n\r\n//     function buyCard(uint _tokenId) public payable {\r\n//         require(ownerOf(_tokenId) == address(this));\r\n//         require(msg.value >= tokenToPrice[_tokenId]);\r\n\r\n//         clearApproval(address(this, _tokenId));\r\n//         removeTokenFrom(address(this, _tokenId));\r\n//         addTokenTo(msg.sender, _tokenId);\r\n//     }\r\n\r\n//     function getIpfsHash(uint _tokenId) public view returns(string) {\r\n//         return tokenToIpfsHash[_tokenId];\r\n//     }\r\n\r\n//     function tokensOf(address _owner) public view returns(uint []) {\r\n//         return ownedTokens[_owner];\r\n//     }\r\n// }",
  "sourcePath": "C:/Users/pablo/OneDrive/Escritorio/bootcamp/itesa_nft/src/truffle/contracts/CryptoArt.sol",
  "compiler": {
    "name": "solc",
    "version": "0.8.3+commit.8d00100c.Emscripten.clang"
  },
  "schemaVersion": "3.3.4",
  "updatedAt": "2021-04-19T20:58:25.782Z",
  "networkType": "ethereum",
  "devdoc": {
    "kind": "dev",
    "methods": {
      "approve(address,uint256)": {
        "details": "See {IERC721-approve}."
      },
      "balanceOf(address)": {
        "details": "See {IERC721-balanceOf}."
      },
      "getApproved(uint256)": {
        "details": "See {IERC721-getApproved}."
      },
      "isApprovedForAll(address,address)": {
        "details": "See {IERC721-isApprovedForAll}."
      },
      "name()": {
        "details": "See {IERC721Metadata-name}."
      },
      "ownerOf(uint256)": {
        "details": "See {IERC721-ownerOf}."
      },
      "safeTransferFrom(address,address,uint256)": {
        "details": "See {IERC721-safeTransferFrom}."
      },
      "safeTransferFrom(address,address,uint256,bytes)": {
        "details": "See {IERC721-safeTransferFrom}."
      },
      "setApprovalForAll(address,bool)": {
        "details": "See {IERC721-setApprovalForAll}."
      },
      "supportsInterface(bytes4)": {
        "details": "See {IERC165-supportsInterface}."
      },
      "symbol()": {
        "details": "See {IERC721Metadata-symbol}."
      },
      "tokenURI(uint256)": {
        "details": "See {IERC721Metadata-tokenURI}."
      },
      "transferFrom(address,address,uint256)": {
        "details": "See {IERC721-transferFrom}."
      }
    },
    "version": 1
  },
  "userdoc": {
    "kind": "user",
    "methods": {},
    "version": 1
  }
}